{
    "_format": "hh-sol-artifact-1",
    "contractName": "chemotronix",
    "sourceName": "contracts/chemotronix.sol",
    "abi": [
        {
            "inputs": [],
            "stateMutability": "nonpayable",
            "type": "constructor"
        },
        {
            "anonymous": false,
            "inputs": [
                {
                    "indexed": true,
                    "internalType": "address",
                    "name": "owner",
                    "type": "address"
                },
                {
                    "indexed": true,
                    "internalType": "address",
                    "name": "spender",
                    "type": "address"
                },
                {
                    "indexed": false,
                    "internalType": "uint256",
                    "name": "value",
                    "type": "uint256"
                }
            ],
            "name": "Approval",
            "type": "event"
        },
        {
            "anonymous": false,
            "inputs": [
                {
                    "indexed": true,
                    "internalType": "address",
                    "name": "from",
                    "type": "address"
                },
                {
                    "indexed": true,
                    "internalType": "address",
                    "name": "to",
                    "type": "address"
                },
                {
                    "indexed": false,
                    "internalType": "uint256",
                    "name": "value",
                    "type": "uint256"
                }
            ],
            "name": "Transfer",
            "type": "event"
        },
        {
            "anonymous": false,
            "inputs": [
                {
                    "indexed": false,
                    "internalType": "uint256",
                    "name": "amount",
                    "type": "uint256"
                },
                {
                    "indexed": false,
                    "internalType": "address",
                    "name": "owner",
                    "type": "address"
                }
            ],
            "name": "fundsWithdrawn",
            "type": "event"
        },
        {
            "anonymous": false,
            "inputs": [
                {
                    "indexed": false,
                    "internalType": "string",
                    "name": "uniqueID",
                    "type": "string"
                },
                {
                    "indexed": false,
                    "internalType": "uint256",
                    "name": "registrationTime",
                    "type": "uint256"
                },
                {
                    "indexed": false,
                    "internalType": "address",
                    "name": "companyAddress",
                    "type": "address"
                }
            ],
            "name": "registered",
            "type": "event"
        },
        {
            "inputs": [
                {
                    "internalType": "address",
                    "name": "owner",
                    "type": "address"
                },
                {
                    "internalType": "address",
                    "name": "spender",
                    "type": "address"
                }
            ],
            "name": "allowance",
            "outputs": [
                {
                    "internalType": "uint256",
                    "name": "",
                    "type": "uint256"
                }
            ],
            "stateMutability": "view",
            "type": "function"
        },
        {
            "inputs": [
                {
                    "internalType": "address",
                    "name": "spender",
                    "type": "address"
                },
                {
                    "internalType": "uint256",
                    "name": "amount",
                    "type": "uint256"
                }
            ],
            "name": "approve",
            "outputs": [
                {
                    "internalType": "bool",
                    "name": "",
                    "type": "bool"
                }
            ],
            "stateMutability": "nonpayable",
            "type": "function"
        },
        {
            "inputs": [
                {
                    "internalType": "address",
                    "name": "account",
                    "type": "address"
                }
            ],
            "name": "balanceOf",
            "outputs": [
                {
                    "internalType": "uint256",
                    "name": "",
                    "type": "uint256"
                }
            ],
            "stateMutability": "view",
            "type": "function"
        },
        {
            "inputs": [
                {
                    "internalType": "string",
                    "name": "uniqueID",
                    "type": "string"
                },
                {
                    "internalType": "uint256",
                    "name": "amount",
                    "type": "uint256"
                }
            ],
            "name": "buyCredit",
            "outputs": [
                {
                    "internalType": "bool",
                    "name": "",
                    "type": "bool"
                }
            ],
            "stateMutability": "nonpayable",
            "type": "function"
        },
        {
            "inputs": [],
            "name": "checkBalance",
            "outputs": [
                {
                    "internalType": "uint256",
                    "name": "",
                    "type": "uint256"
                }
            ],
            "stateMutability": "view",
            "type": "function"
        },
        {
            "inputs": [
                {
                    "internalType": "string",
                    "name": "uniqueID",
                    "type": "string"
                }
            ],
            "name": "checkMyStatus",
            "outputs": [
                {
                    "internalType": "enum chemotronix.subStatus",
                    "name": "",
                    "type": "uint8"
                }
            ],
            "stateMutability": "view",
            "type": "function"
        },
        {
            "inputs": [],
            "name": "decimals",
            "outputs": [
                {
                    "internalType": "uint8",
                    "name": "",
                    "type": "uint8"
                }
            ],
            "stateMutability": "view",
            "type": "function"
        },
        {
            "inputs": [
                {
                    "internalType": "address",
                    "name": "spender",
                    "type": "address"
                },
                {
                    "internalType": "uint256",
                    "name": "subtractedValue",
                    "type": "uint256"
                }
            ],
            "name": "decreaseAllowance",
            "outputs": [
                {
                    "internalType": "bool",
                    "name": "",
                    "type": "bool"
                }
            ],
            "stateMutability": "nonpayable",
            "type": "function"
        },
        {
            "inputs": [
                {
                    "internalType": "address",
                    "name": "spender",
                    "type": "address"
                },
                {
                    "internalType": "uint256",
                    "name": "addedValue",
                    "type": "uint256"
                }
            ],
            "name": "increaseAllowance",
            "outputs": [
                {
                    "internalType": "bool",
                    "name": "",
                    "type": "bool"
                }
            ],
            "stateMutability": "nonpayable",
            "type": "function"
        },
        {
            "inputs": [],
            "name": "name",
            "outputs": [
                {
                    "internalType": "string",
                    "name": "",
                    "type": "string"
                }
            ],
            "stateMutability": "view",
            "type": "function"
        },
        {
            "inputs": [
                {
                    "internalType": "uint256",
                    "name": "weight",
                    "type": "uint256"
                },
                {
                    "internalType": "string",
                    "name": "uniqueID",
                    "type": "string"
                }
            ],
            "name": "offset",
            "outputs": [
                {
                    "internalType": "bool",
                    "name": "",
                    "type": "bool"
                }
            ],
            "stateMutability": "nonpayable",
            "type": "function"
        },
        {
            "inputs": [
                {
                    "internalType": "string",
                    "name": "uniqueID",
                    "type": "string"
                },
                {
                    "internalType": "string",
                    "name": "_uniqueID",
                    "type": "string"
                },
                {
                    "internalType": "uint256",
                    "name": "amount",
                    "type": "uint256"
                }
            ],
            "name": "shareCredit",
            "outputs": [
                {
                    "internalType": "bool",
                    "name": "",
                    "type": "bool"
                }
            ],
            "stateMutability": "nonpayable",
            "type": "function"
        },
        {
            "inputs": [
                {
                    "internalType": "uint256",
                    "name": "deposit",
                    "type": "uint256"
                },
                {
                    "internalType": "string",
                    "name": "uniqueID",
                    "type": "string"
                }
            ],
            "name": "subscribe",
            "outputs": [],
            "stateMutability": "payable",
            "type": "function"
        },
        {
            "inputs": [],
            "name": "symbol",
            "outputs": [
                {
                    "internalType": "string",
                    "name": "",
                    "type": "string"
                }
            ],
            "stateMutability": "view",
            "type": "function"
        },
        {
            "inputs": [],
            "name": "totalSupply",
            "outputs": [
                {
                    "internalType": "uint256",
                    "name": "",
                    "type": "uint256"
                }
            ],
            "stateMutability": "view",
            "type": "function"
        },
        {
            "inputs": [
                {
                    "internalType": "address",
                    "name": "to",
                    "type": "address"
                },
                {
                    "internalType": "uint256",
                    "name": "amount",
                    "type": "uint256"
                }
            ],
            "name": "transfer",
            "outputs": [
                {
                    "internalType": "bool",
                    "name": "",
                    "type": "bool"
                }
            ],
            "stateMutability": "nonpayable",
            "type": "function"
        },
        {
            "inputs": [
                {
                    "internalType": "address",
                    "name": "from",
                    "type": "address"
                },
                {
                    "internalType": "address",
                    "name": "to",
                    "type": "address"
                },
                {
                    "internalType": "uint256",
                    "name": "amount",
                    "type": "uint256"
                }
            ],
            "name": "transferFrom",
            "outputs": [
                {
                    "internalType": "bool",
                    "name": "",
                    "type": "bool"
                }
            ],
            "stateMutability": "nonpayable",
            "type": "function"
        },
        {
            "inputs": [
                {
                    "internalType": "uint256",
                    "name": "amount",
                    "type": "uint256"
                }
            ],
            "name": "withdrawEarnings",
            "outputs": [],
            "stateMutability": "nonpayable",
            "type": "function"
        }
    ],
    "bytecode": "0x60a06040523480156200001157600080fd5b506040518060400160405280600b81526020017f4348454d4f54524f4e49580000000000000000000000000000000000000000008152506040518060400160405280600381526020017f434d58000000000000000000000000000000000000000000000000000000000081525081600390816200008f91906200050c565b508060049081620000a191906200050c565b50505073ba375f12e4ec33adc4f3b3873fce2882dd78786873ffffffffffffffffffffffffffffffffffffffff1660808173ffffffffffffffffffffffffffffffffffffffff16815250506200010a60805169152d02c7e14af68000006200011060201b60201c565b6200070e565b600073ffffffffffffffffffffffffffffffffffffffff168273ffffffffffffffffffffffffffffffffffffffff160362000182576040517f08c379a0000000000000000000000000000000000000000000000000000000008152600401620001799062000654565b60405180910390fd5b62000196600083836200028860201b60201c565b8060026000828254620001aa9190620006a5565b92505081905550806000808473ffffffffffffffffffffffffffffffffffffffff1673ffffffffffffffffffffffffffffffffffffffff1681526020019081526020016000206000828254620002019190620006a5565b925050819055508173ffffffffffffffffffffffffffffffffffffffff16600073ffffffffffffffffffffffffffffffffffffffff167fddf252ad1be2c89b69c2b068fc378daa952ba7f163c4a11628f55a4df523b3ef83604051620002689190620006f1565b60405180910390a362000284600083836200028d60201b60201c565b5050565b505050565b505050565b600081519050919050565b7f4e487b7100000000000000000000000000000000000000000000000000000000600052604160045260246000fd5b7f4e487b7100000000000000000000000000000000000000000000000000000000600052602260045260246000fd5b600060028204905060018216806200031457607f821691505b6020821081036200032a5762000329620002cc565b5b50919050565b60008190508160005260206000209050919050565b60006020601f8301049050919050565b600082821b905092915050565b600060088302620003947fffffffffffffffffffffffffffffffffffffffffffffffffffffffffffffffff8262000355565b620003a0868362000355565b95508019841693508086168417925050509392505050565b6000819050919050565b6000819050919050565b6000620003ed620003e7620003e184620003b8565b620003c2565b620003b8565b9050919050565b6000819050919050565b6200040983620003cc565b620004216200041882620003f4565b84845462000362565b825550505050565b600090565b6200043862000429565b62000445818484620003fe565b505050565b5b818110156200046d57620004616000826200042e565b6001810190506200044b565b5050565b601f821115620004bc57620004868162000330565b620004918462000345565b81016020851015620004a1578190505b620004b9620004b08562000345565b8301826200044a565b50505b505050565b600082821c905092915050565b6000620004e160001984600802620004c1565b1980831691505092915050565b6000620004fc8383620004ce565b9150826002028217905092915050565b620005178262000292565b67ffffffffffffffff8111156200053357620005326200029d565b5b6200053f8254620002fb565b6200054c82828562000471565b600060209050601f8311600181146200058457600084156200056f578287015190505b6200057b8582620004ee565b865550620005eb565b601f198416620005948662000330565b60005b82811015620005be5784890151825560018201915060208501945060208101905062000597565b86831015620005de5784890151620005da601f891682620004ce565b8355505b6001600288020188555050505b505050505050565b600082825260208201905092915050565b7f45524332303a206d696e7420746f20746865207a65726f206164647265737300600082015250565b60006200063c601f83620005f3565b9150620006498262000604565b602082019050919050565b600060208201905081810360008301526200066f816200062d565b9050919050565b7f4e487b7100000000000000000000000000000000000000000000000000000000600052601160045260246000fd5b6000620006b282620003b8565b9150620006bf83620003b8565b9250828201905080821115620006da57620006d962000676565b5b92915050565b620006eb81620003b8565b82525050565b6000602082019050620007086000830184620006e0565b92915050565b6080516125316200075b6000396000818161065f01528181610686015281816109080152818161099601528181610c2701528181610d1a01528181610f2c0152610f6b01526125316000f3fe6080604052600436106101095760003560e01c80636e70096e11610095578063a457c2d711610064578063a457c2d7146103aa578063a9059cbb146103e7578063b13394bf14610424578063c71daccb14610461578063dd62ed3e1461048c57610109565b80636e70096e146102fd57806370a082311461032657806386d4fbd31461036357806395d89b411461037f57610109565b806324a7f2f3116100dc57806324a7f2f3146101de57806325ae33691461021b5780632f5c534e14610258578063313ce5671461029557806339509351146102c057610109565b806306fdde031461010e578063095ea7b31461013957806318160ddd1461017657806323b872dd146101a1575b600080fd5b34801561011a57600080fd5b506101236104c9565b60405161013091906115e7565b60405180910390f35b34801561014557600080fd5b50610160600480360381019061015b91906116b1565b61055b565b60405161016d919061170c565b60405180910390f35b34801561018257600080fd5b5061018b61057e565b6040516101989190611736565b60405180910390f35b3480156101ad57600080fd5b506101c860048036038101906101c39190611751565b610588565b6040516101d5919061170c565b60405180910390f35b3480156101ea57600080fd5b50610205600480360381019061020091906118d9565b6105b7565b6040516102129190611999565b60405180910390f35b34801561022757600080fd5b50610242600480360381019061023d91906119b4565b6105f4565b60405161024f919061170c565b60405180910390f35b34801561026457600080fd5b5061027f600480360381019061027a9190611a10565b610714565b60405161028c919061170c565b60405180910390f35b3480156102a157600080fd5b506102aa6108c6565b6040516102b79190611ab7565b60405180910390f35b3480156102cc57600080fd5b506102e760048036038101906102e291906116b1565b6108cf565b6040516102f4919061170c565b60405180910390f35b34801561030957600080fd5b50610324600480360381019061031f9190611ad2565b610906565b005b34801561033257600080fd5b5061034d60048036038101906103489190611aff565b6109fe565b60405161035a9190611736565b60405180910390f35b61037d600480360381019061037891906119b4565b610a46565b005b34801561038b57600080fd5b50610394610d96565b6040516103a191906115e7565b60405180910390f35b3480156103b657600080fd5b506103d160048036038101906103cc91906116b1565b610e28565b6040516103de919061170c565b60405180910390f35b3480156103f357600080fd5b5061040e600480360381019061040991906116b1565b610e9f565b60405161041b919061170c565b60405180910390f35b34801561043057600080fd5b5061044b60048036038101906104469190611b2c565b610ec2565b604051610458919061170c565b60405180910390f35b34801561046d57600080fd5b50610476610fe2565b6040516104839190611736565b60405180910390f35b34801561049857600080fd5b506104b360048036038101906104ae9190611b88565b610fea565b6040516104c09190611736565b60405180910390f35b6060600380546104d890611bf7565b80601f016020809104026020016040519081016040528092919081815260200182805461050490611bf7565b80156105515780601f1061052657610100808354040283529160200191610551565b820191906000526020600020905b81548152906001019060200180831161053457829003601f168201915b5050505050905090565b600080610566611071565b9050610573818585611079565b600191505092915050565b6000600254905090565b600080610593611071565b90506105a0858285611242565b6105ab8585856112ce565b60019150509392505050565b6000806005836040516105ca9190611c64565b908152602001604051809103902090508060040160009054906101000a900460ff16915050919050565b6000806005836040516106079190611c64565b908152602001604051809103902090506001600281111561062b5761062a611922565b5b8160040160009054906101000a900460ff16600281111561064f5761064e611922565b5b1461065957600080fd5b610684337f0000000000000000000000000000000000000000000000000000000000000000866112ce565b7f000000000000000000000000000000000000000000000000000000000000000073ffffffffffffffffffffffffffffffffffffffff163373ffffffffffffffffffffffffffffffffffffffff167fddf252ad1be2c89b69c2b068fc378daa952ba7f163c4a11628f55a4df523b3ef866040516107019190611736565b60405180910390a3600191505092915050565b6000806005856040516107279190611c64565b9081526020016040518091039020905060006005856040516107499190611c64565b908152602001604051809103902090506001600281111561076d5761076c611922565b5b8160040160009054906101000a900460ff16600281111561079157610790611922565b5b1461079b57600080fd5b600160028111156107af576107ae611922565b5b8260040160009054906101000a900460ff1660028111156107d3576107d2611922565b5b146107dd57600080fd5b6108308260000160009054906101000a900473ffffffffffffffffffffffffffffffffffffffff168260000160009054906101000a900473ffffffffffffffffffffffffffffffffffffffff16866112ce565b8060000160009054906101000a900473ffffffffffffffffffffffffffffffffffffffff1673ffffffffffffffffffffffffffffffffffffffff163373ffffffffffffffffffffffffffffffffffffffff167fddf252ad1be2c89b69c2b068fc378daa952ba7f163c4a11628f55a4df523b3ef866040516108b19190611736565b60405180910390a36001925050509392505050565b60006012905090565b6000806108da611071565b90506108fb8185856108ec8589610fea565b6108f69190611caa565b611079565b600191505092915050565b7f000000000000000000000000000000000000000000000000000000000000000073ffffffffffffffffffffffffffffffffffffffff163373ffffffffffffffffffffffffffffffffffffffff1614610994576040517f08c379a000000000000000000000000000000000000000000000000000000000815260040161098b90611d50565b60405180910390fd5b7f000000000000000000000000000000000000000000000000000000000000000073ffffffffffffffffffffffffffffffffffffffff166108fc829081150290604051600060405180830381858888f193505050501580156109fa573d6000803e3d6000fd5b5050565b60008060008373ffffffffffffffffffffffffffffffffffffffff1673ffffffffffffffffffffffffffffffffffffffff168152602001908152602001600020549050919050565b806000600582604051610a599190611c64565b9081526020016040518091039020905060016002811115610a7d57610a7c611922565b5b8160040160009054906101000a900460ff166002811115610aa157610aa0611922565b5b03610aab57600080fd5b60018414610aee576040517f08c379a0000000000000000000000000000000000000000000000000000000008152600401610ae590611de2565b60405180910390fd5b6040518060a001604052803373ffffffffffffffffffffffffffffffffffffffff16815260200142815260200184815260200185815260200160016002811115610b3b57610b3a611922565b5b815250600584604051610b4e9190611c64565b908152602001604051809103902060008201518160000160006101000a81548173ffffffffffffffffffffffffffffffffffffffff021916908373ffffffffffffffffffffffffffffffffffffffff160217905550602082015181600101556040820151816002019081610bc29190611fae565b506060820151816003015560808201518160040160006101000a81548160ff02191690836002811115610bf857610bf7611922565b5b02179055509050506000600584604051610c129190611c64565b90815260200160405180910390209050610c7a7f00000000000000000000000000000000000000000000000000000000000000008260000160009054906101000a900473ffffffffffffffffffffffffffffffffffffffff166801158e460913d000006112ce565b7f2f2d57060110e728629fcdcfd43a3b0f571b51ca1899668910d777e935601e3e8482600101548360000160009054906101000a900473ffffffffffffffffffffffffffffffffffffffff16604051610cd59392919061208f565b60405180910390a18060000160009054906101000a900473ffffffffffffffffffffffffffffffffffffffff1673ffffffffffffffffffffffffffffffffffffffff167f000000000000000000000000000000000000000000000000000000000000000073ffffffffffffffffffffffffffffffffffffffff167fddf252ad1be2c89b69c2b068fc378daa952ba7f163c4a11628f55a4df523b3ef6801158e460913d00000604051610d879190612108565b60405180910390a35050505050565b606060048054610da590611bf7565b80601f0160208091040260200160405190810160405280929190818152602001828054610dd190611bf7565b8015610e1e5780601f10610df357610100808354040283529160200191610e1e565b820191906000526020600020905b815481529060010190602001808311610e0157829003601f168201915b5050505050905090565b600080610e33611071565b90506000610e418286610fea565b905083811015610e86576040517f08c379a0000000000000000000000000000000000000000000000000000000008152600401610e7d90612195565b60405180910390fd5b610e938286868403611079565b60019250505092915050565b600080610eaa611071565b9050610eb78185856112ce565b600191505092915050565b600080600584604051610ed59190611c64565b9081526020016040518091039020905060016002811115610ef957610ef8611922565b5b8160040160009054906101000a900460ff166002811115610f1d57610f1c611922565b5b14610f2757600080fd5b610f527f000000000000000000000000000000000000000000000000000000000000000033856112ce565b3373ffffffffffffffffffffffffffffffffffffffff167f000000000000000000000000000000000000000000000000000000000000000073ffffffffffffffffffffffffffffffffffffffff167fddf252ad1be2c89b69c2b068fc378daa952ba7f163c4a11628f55a4df523b3ef85604051610fcf9190611736565b60405180910390a3600191505092915050565b600047905090565b6000600160008473ffffffffffffffffffffffffffffffffffffffff1673ffffffffffffffffffffffffffffffffffffffff16815260200190815260200160002060008373ffffffffffffffffffffffffffffffffffffffff1673ffffffffffffffffffffffffffffffffffffffff16815260200190815260200160002054905092915050565b600033905090565b600073ffffffffffffffffffffffffffffffffffffffff168373ffffffffffffffffffffffffffffffffffffffff16036110e8576040517f08c379a00000000000000000000000000000000000000000000000000000000081526004016110df90612227565b60405180910390fd5b600073ffffffffffffffffffffffffffffffffffffffff168273ffffffffffffffffffffffffffffffffffffffff1603611157576040517f08c379a000000000000000000000000000000000000000000000000000000000815260040161114e906122b9565b60405180910390fd5b80600160008573ffffffffffffffffffffffffffffffffffffffff1673ffffffffffffffffffffffffffffffffffffffff16815260200190815260200160002060008473ffffffffffffffffffffffffffffffffffffffff1673ffffffffffffffffffffffffffffffffffffffff168152602001908152602001600020819055508173ffffffffffffffffffffffffffffffffffffffff168373ffffffffffffffffffffffffffffffffffffffff167f8c5be1e5ebec7d5bd14f71427d1e84f3dd0314c0f7b2291e5b200ac8c7c3b925836040516112359190611736565b60405180910390a3505050565b600061124e8484610fea565b90507fffffffffffffffffffffffffffffffffffffffffffffffffffffffffffffffff81146112c857818110156112ba576040517f08c379a00000000000000000000000000000000000000000000000000000000081526004016112b190612325565b60405180910390fd5b6112c78484848403611079565b5b50505050565b600073ffffffffffffffffffffffffffffffffffffffff168373ffffffffffffffffffffffffffffffffffffffff160361133d576040517f08c379a0000000000000000000000000000000000000000000000000000000008152600401611334906123b7565b60405180910390fd5b600073ffffffffffffffffffffffffffffffffffffffff168273ffffffffffffffffffffffffffffffffffffffff16036113ac576040517f08c379a00000000000000000000000000000000000000000000000000000000081526004016113a390612449565b60405180910390fd5b6113b783838361154d565b60008060008573ffffffffffffffffffffffffffffffffffffffff1673ffffffffffffffffffffffffffffffffffffffff1681526020019081526020016000205490508181101561143d576040517f08c379a0000000000000000000000000000000000000000000000000000000008152600401611434906124db565b60405180910390fd5b8181036000808673ffffffffffffffffffffffffffffffffffffffff1673ffffffffffffffffffffffffffffffffffffffff16815260200190815260200160002081905550816000808573ffffffffffffffffffffffffffffffffffffffff1673ffffffffffffffffffffffffffffffffffffffff16815260200190815260200160002060008282546114d09190611caa565b925050819055508273ffffffffffffffffffffffffffffffffffffffff168473ffffffffffffffffffffffffffffffffffffffff167fddf252ad1be2c89b69c2b068fc378daa952ba7f163c4a11628f55a4df523b3ef846040516115349190611736565b60405180910390a3611547848484611552565b50505050565b505050565b505050565b600081519050919050565b600082825260208201905092915050565b60005b83811015611591578082015181840152602081019050611576565b60008484015250505050565b6000601f19601f8301169050919050565b60006115b982611557565b6115c38185611562565b93506115d3818560208601611573565b6115dc8161159d565b840191505092915050565b6000602082019050818103600083015261160181846115ae565b905092915050565b6000604051905090565b600080fd5b600080fd5b600073ffffffffffffffffffffffffffffffffffffffff82169050919050565b60006116488261161d565b9050919050565b6116588161163d565b811461166357600080fd5b50565b6000813590506116758161164f565b92915050565b6000819050919050565b61168e8161167b565b811461169957600080fd5b50565b6000813590506116ab81611685565b92915050565b600080604083850312156116c8576116c7611613565b5b60006116d685828601611666565b92505060206116e78582860161169c565b9150509250929050565b60008115159050919050565b611706816116f1565b82525050565b600060208201905061172160008301846116fd565b92915050565b6117308161167b565b82525050565b600060208201905061174b6000830184611727565b92915050565b60008060006060848603121561176a57611769611613565b5b600061177886828701611666565b935050602061178986828701611666565b925050604061179a8682870161169c565b9150509250925092565b600080fd5b600080fd5b7f4e487b7100000000000000000000000000000000000000000000000000000000600052604160045260246000fd5b6117e68261159d565b810181811067ffffffffffffffff82111715611805576118046117ae565b5b80604052505050565b6000611818611609565b905061182482826117dd565b919050565b600067ffffffffffffffff821115611844576118436117ae565b5b61184d8261159d565b9050602081019050919050565b82818337600083830152505050565b600061187c61187784611829565b61180e565b905082815260208101848484011115611898576118976117a9565b5b6118a384828561185a565b509392505050565b600082601f8301126118c0576118bf6117a4565b5b81356118d0848260208601611869565b91505092915050565b6000602082840312156118ef576118ee611613565b5b600082013567ffffffffffffffff81111561190d5761190c611618565b5b611919848285016118ab565b91505092915050565b7f4e487b7100000000000000000000000000000000000000000000000000000000600052602160045260246000fd5b6003811061196257611961611922565b5b50565b600081905061197382611951565b919050565b600061198382611965565b9050919050565b61199381611978565b82525050565b60006020820190506119ae600083018461198a565b92915050565b600080604083850312156119cb576119ca611613565b5b60006119d98582860161169c565b925050602083013567ffffffffffffffff8111156119fa576119f9611618565b5b611a06858286016118ab565b9150509250929050565b600080600060608486031215611a2957611a28611613565b5b600084013567ffffffffffffffff811115611a4757611a46611618565b5b611a53868287016118ab565b935050602084013567ffffffffffffffff811115611a7457611a73611618565b5b611a80868287016118ab565b9250506040611a918682870161169c565b9150509250925092565b600060ff82169050919050565b611ab181611a9b565b82525050565b6000602082019050611acc6000830184611aa8565b92915050565b600060208284031215611ae857611ae7611613565b5b6000611af68482850161169c565b91505092915050565b600060208284031215611b1557611b14611613565b5b6000611b2384828501611666565b91505092915050565b60008060408385031215611b4357611b42611613565b5b600083013567ffffffffffffffff811115611b6157611b60611618565b5b611b6d858286016118ab565b9250506020611b7e8582860161169c565b9150509250929050565b60008060408385031215611b9f57611b9e611613565b5b6000611bad85828601611666565b9250506020611bbe85828601611666565b9150509250929050565b7f4e487b7100000000000000000000000000000000000000000000000000000000600052602260045260246000fd5b60006002820490506001821680611c0f57607f821691505b602082108103611c2257611c21611bc8565b5b50919050565b600081905092915050565b6000611c3e82611557565b611c488185611c28565b9350611c58818560208601611573565b80840191505092915050565b6000611c708284611c33565b915081905092915050565b7f4e487b7100000000000000000000000000000000000000000000000000000000600052601160045260246000fd5b6000611cb58261167b565b9150611cc08361167b565b9250828201905080821115611cd857611cd7611c7b565b5b92915050565b7f596f7520646f206e6f742068617665207065726d697373696f6e20746f20636160008201527f6c6c20746869732066756e6374696f6e00000000000000000000000000000000602082015250565b6000611d3a603083611562565b9150611d4582611cde565b604082019050919050565b60006020820190508181036000830152611d6981611d2d565b9050919050565b7f596f7520646f206e6f7420686176652074686520636f7272656374207375627360008201527f6372697074696f6e206665650000000000000000000000000000000000000000602082015250565b6000611dcc602c83611562565b9150611dd782611d70565b604082019050919050565b60006020820190508181036000830152611dfb81611dbf565b9050919050565b60008190508160005260206000209050919050565b60006020601f8301049050919050565b600082821b905092915050565b600060088302611e647fffffffffffffffffffffffffffffffffffffffffffffffffffffffffffffffff82611e27565b611e6e8683611e27565b95508019841693508086168417925050509392505050565b6000819050919050565b6000611eab611ea6611ea18461167b565b611e86565b61167b565b9050919050565b6000819050919050565b611ec583611e90565b611ed9611ed182611eb2565b848454611e34565b825550505050565b600090565b611eee611ee1565b611ef9818484611ebc565b505050565b5b81811015611f1d57611f12600082611ee6565b600181019050611eff565b5050565b601f821115611f6257611f3381611e02565b611f3c84611e17565b81016020851015611f4b578190505b611f5f611f5785611e17565b830182611efe565b50505b505050565b600082821c905092915050565b6000611f8560001984600802611f67565b1980831691505092915050565b6000611f9e8383611f74565b9150826002028217905092915050565b611fb782611557565b67ffffffffffffffff811115611fd057611fcf6117ae565b5b611fda8254611bf7565b611fe5828285611f21565b600060209050601f8311600181146120185760008415612006578287015190505b6120108582611f92565b865550612078565b601f19841661202686611e02565b60005b8281101561204e57848901518255600182019150602085019450602081019050612029565b8683101561206b5784890151612067601f891682611f74565b8355505b6001600288020188555050505b505050505050565b6120898161163d565b82525050565b600060608201905081810360008301526120a981866115ae565b90506120b86020830185611727565b6120c56040830184612080565b949350505050565b6000819050919050565b60006120f26120ed6120e8846120cd565b611e86565b61167b565b9050919050565b612102816120d7565b82525050565b600060208201905061211d60008301846120f9565b92915050565b7f45524332303a2064656372656173656420616c6c6f77616e63652062656c6f7760008201527f207a65726f000000000000000000000000000000000000000000000000000000602082015250565b600061217f602583611562565b915061218a82612123565b604082019050919050565b600060208201905081810360008301526121ae81612172565b9050919050565b7f45524332303a20617070726f76652066726f6d20746865207a65726f2061646460008201527f7265737300000000000000000000000000000000000000000000000000000000602082015250565b6000612211602483611562565b915061221c826121b5565b604082019050919050565b6000602082019050818103600083015261224081612204565b9050919050565b7f45524332303a20617070726f766520746f20746865207a65726f20616464726560008201527f7373000000000000000000000000000000000000000000000000000000000000602082015250565b60006122a3602283611562565b91506122ae82612247565b604082019050919050565b600060208201905081810360008301526122d281612296565b9050919050565b7f45524332303a20696e73756666696369656e7420616c6c6f77616e6365000000600082015250565b600061230f601d83611562565b915061231a826122d9565b602082019050919050565b6000602082019050818103600083015261233e81612302565b9050919050565b7f45524332303a207472616e736665722066726f6d20746865207a65726f20616460008201527f6472657373000000000000000000000000000000000000000000000000000000602082015250565b60006123a1602583611562565b91506123ac82612345565b604082019050919050565b600060208201905081810360008301526123d081612394565b9050919050565b7f45524332303a207472616e7366657220746f20746865207a65726f206164647260008201527f6573730000000000000000000000000000000000000000000000000000000000602082015250565b6000612433602383611562565b915061243e826123d7565b604082019050919050565b6000602082019050818103600083015261246281612426565b9050919050565b7f45524332303a207472616e7366657220616d6f756e742065786365656473206260008201527f616c616e63650000000000000000000000000000000000000000000000000000602082015250565b60006124c5602683611562565b91506124d082612469565b604082019050919050565b600060208201905081810360008301526124f4816124b8565b905091905056fea26469706673582212206730c1a09648f240c9383f0c384df110917a4a21668e8add5b5c0bdecf5f0cac64736f6c63430008100033",
    "linkReferences": {},
    "deployedLinkReferences": {}
}